{
  "contractName": "learning",
  "abi": [
    {
      "inputs": [],
      "name": "fastComputer",
      "outputs": [
        {
          "internalType": "uint256",
          "name": "",
          "type": "uint256"
        }
      ],
      "stateMutability": "view",
      "type": "function",
      "constant": true
    },
    {
      "inputs": [],
      "name": "fasterBallType",
      "outputs": [
        {
          "internalType": "enum learning.FasterBallType",
          "name": "",
          "type": "uint8"
        }
      ],
      "stateMutability": "view",
      "type": "function",
      "constant": true
    },
    {
      "inputs": [],
      "name": "randNumber",
      "outputs": [
        {
          "internalType": "uint256",
          "name": "",
          "type": "uint256"
        }
      ],
      "stateMutability": "view",
      "type": "function",
      "constant": true
    },
    {
      "inputs": [],
      "name": "run",
      "outputs": [
        {
          "internalType": "uint256",
          "name": "",
          "type": "uint256"
        }
      ],
      "stateMutability": "view",
      "type": "function",
      "constant": true
    },
    {
      "inputs": [],
      "name": "spinComputer",
      "outputs": [
        {
          "internalType": "uint256",
          "name": "",
          "type": "uint256"
        }
      ],
      "stateMutability": "view",
      "type": "function",
      "constant": true
    },
    {
      "inputs": [],
      "name": "sppinerBallType",
      "outputs": [
        {
          "internalType": "enum learning.SppinerBallType",
          "name": "",
          "type": "uint8"
        }
      ],
      "stateMutability": "view",
      "type": "function",
      "constant": true
    },
    {
      "inputs": [],
      "name": "typeComputerBalling",
      "outputs": [
        {
          "internalType": "uint256",
          "name": "",
          "type": "uint256"
        }
      ],
      "stateMutability": "view",
      "type": "function",
      "constant": true
    },
    {
      "inputs": [],
      "name": "typeOfBaller",
      "outputs": [
        {
          "internalType": "enum learning.TypeOfBaller",
          "name": "",
          "type": "uint8"
        }
      ],
      "stateMutability": "view",
      "type": "function",
      "constant": true
    },
    {
      "inputs": [
        {
          "internalType": "uint256",
          "name": "val",
          "type": "uint256"
        }
      ],
      "name": "computerSideGame",
      "outputs": [
        {
          "internalType": "uint256",
          "name": "",
          "type": "uint256"
        }
      ],
      "stateMutability": "nonpayable",
      "type": "function"
    }
  ],
  "bytecode": "0x6080604052600242336040516020016200001b929190620001cc565b6040516020818303038152906040528051906020012060001c6200004091906200022b565b600155600242336040516020016200005a929190620001cc565b6040516020818303038152906040528051906020012060001c6200007f91906200022b565b6002556006423360405160200162000099929190620001cc565b6040516020818303038152906040528051906020012060001c620000be91906200022b565b60035560044233604051602001620000d8929190620001cc565b6040516020818303038152906040528051906020012060001c620000fd91906200022b565b60045560006005553480156200011257600080fd5b5062000263565b6000819050919050565b6000819050919050565b620001426200013c8262000119565b62000123565b82525050565b600073ffffffffffffffffffffffffffffffffffffffff82169050919050565b6000620001758262000148565b9050919050565b60008160601b9050919050565b600062000196826200017c565b9050919050565b6000620001aa8262000189565b9050919050565b620001c6620001c08262000168565b6200019d565b82525050565b6000620001da82856200012d565b602082019150620001ec8284620001b1565b6014820191508190509392505050565b7f4e487b7100000000000000000000000000000000000000000000000000000000600052601260045260246000fd5b6000620002388262000119565b9150620002458362000119565b925082620002585762000257620001fc565b5b828206905092915050565b615a1e80620002736000396000f3fe608060405234801561001057600080fd5b50600436106100935760003560e01c806379d97a1c1161006657806379d97a1c14610110578063b5e8a7a51461012e578063c04062261461015e578063c26b057b1461017c578063e69b7e8b1461019a57610093565b8063159d5de0146100985780631b666bea146100b65780631ed44e5e146100d4578063723ed867146100f2575b600080fd5b6100a06101b8565b6040516100ad9190615727565b60405180910390f35b6100be6101c9565b6040516100cb919061575b565b60405180910390f35b6100dc6101cf565b6040516100e9919061575b565b60405180910390f35b6100fa6101d5565b60405161010791906157be565b60405180910390f35b6101186101e8565b604051610125919061575b565b60405180910390f35b6101486004803603810190610143919061580a565b6101ee565b604051610155919061575b565b60405180910390f35b610166615691565b604051610173919061575b565b60405180910390f35b610184615697565b604051610191919061587f565b60405180910390f35b6101a26156aa565b6040516101af919061575b565b60405180910390f35b60008054906101000a900460ff1681565b60035481565b60025481565b600060019054906101000a900460ff1681565b60015481565b600080600190505b6002811161568b576000600190505b6005811161567757600f841015610251576040517f08c379a00000000000000000000000000000000000000000000000000000000081526004016102489061591d565b60405180910390fd5b60006002540361566457600060035403610a5a5760006005811115610279576102786156b0565b5b600060019054906101000a900460ff16600581111561029b5761029a6156b0565b5b1480156102e757506001600e8111156102b7576102b66156b0565b5b600060039054906101000a900460ff16600e8111156102d9576102d86156b0565b5b1480156102e65750600284145b5b80610370575060006005811115610301576103006156b0565b5b600060019054906101000a900460ff166005811115610323576103226156b0565b5b14801561036f57506000600e81111561033f5761033e6156b0565b5b600060039054906101000a900460ff16600e811115610361576103606156b0565b5b14801561036e5750600184145b5b5b1561039457600460056000828254610388919061596c565b92505081905550610a55565b600060058111156103a8576103a76156b0565b5b600060019054906101000a900460ff1660058111156103ca576103c96156b0565b5b14801561041657506007600e8111156103e6576103e56156b0565b5b600060039054906101000a900460ff16600e811115610408576104076156b0565b5b1480156104155750600884145b5b8061049f5750600060058111156104305761042f6156b0565b5b600060019054906101000a900460ff166005811115610452576104516156b0565b5b14801561049e57506006600e81111561046e5761046d6156b0565b5b600060039054906101000a900460ff16600e8111156104905761048f6156b0565b5b14801561049d5750600784145b5b5b156104c3576006600560008282546104b7919061596c565b92505081905550610a54565b600060058111156104d7576104d66156b0565b5b600060019054906101000a900460ff1660058111156104f9576104f86156b0565b5b14801561054557506004600e811115610515576105146156b0565b5b600060039054906101000a900460ff16600e811115610537576105366156b0565b5b1480156105445750600584145b5b806105ce57506000600581111561055f5761055e6156b0565b5b600060019054906101000a900460ff166005811115610581576105806156b0565b5b1480156105cd57506003600e81111561059d5761059c6156b0565b5b600060039054906101000a900460ff16600e8111156105bf576105be6156b0565b5b1480156105cc5750600484145b5b5b806106565750600060058111156105e8576105e76156b0565b5b600060019054906101000a900460ff16600581111561060a576106096156b0565b5b1480156106555750600e80811115610625576106246156b0565b5b600060039054906101000a900460ff16600e811115610647576106466156b0565b5b1480156106545750600f84145b5b5b806106df5750600060058111156106705761066f6156b0565b5b600060019054906101000a900460ff166005811115610692576106916156b0565b5b1480156106de5750600b600e8111156106ae576106ad6156b0565b5b600060039054906101000a900460ff16600e8111156106d0576106cf6156b0565b5b1480156106dd5750600c84145b5b5b806107685750600060058111156106f9576106f86156b0565b5b600060019054906101000a900460ff16600581111561071b5761071a6156b0565b5b1480156107675750600a600e811115610737576107366156b0565b5b600060039054906101000a900460ff16600e811115610759576107586156b0565b5b1480156107665750600b84145b5b5b806107f1575060006005811115610782576107816156b0565b5b600060019054906101000a900460ff1660058111156107a4576107a36156b0565b5b1480156107f057506009600e8111156107c0576107bf6156b0565b5b600060039054906101000a900460ff16600e8111156107e2576107e16156b0565b5b1480156107ef5750600a84145b5b5b8061087a57506000600581111561080b5761080a6156b0565b5b600060019054906101000a900460ff16600581111561082d5761082c6156b0565b5b14801561087957506008600e811115610849576108486156b0565b5b600060039054906101000a900460ff16600e81111561086b5761086a6156b0565b5b1480156108785750600984145b5b5b1561089e57600060056000828254610892919061596c565b92505081905550610a53565b600060058111156108b2576108b16156b0565b5b600060019054906101000a900460ff1660058111156108d4576108d36156b0565b5b14801561092057506002600e8111156108f0576108ef6156b0565b5b600060039054906101000a900460ff16600e811115610912576109116156b0565b5b14801561091f5750600384145b5b806109a957506000600581111561093a576109396156b0565b5b600060019054906101000a900460ff16600581111561095c5761095b6156b0565b5b1480156109a85750600d600e811115610978576109776156b0565b5b600060039054906101000a900460ff16600e81111561099a576109996156b0565b5b1480156109a75750600e84145b5b5b80610a325750600060058111156109c3576109c26156b0565b5b600060019054906101000a900460ff1660058111156109e5576109e46156b0565b5b148015610a315750600c600e811115610a0157610a006156b0565b5b600060039054906101000a900460ff16600e811115610a2357610a226156b0565b5b148015610a305750600d84145b5b5b15610a5257600160056000828254610a4a919061596c565b925050819055505b5b5b5b615663565b600160035403611ab45760016005811115610a7857610a776156b0565b5b600060019054906101000a900460ff166005811115610a9a57610a996156b0565b5b0361120c5760016005811115610ab357610ab26156b0565b5b600060019054906101000a900460ff166005811115610ad557610ad46156b0565b5b148015610b2157506008600e811115610af157610af06156b0565b5b600060039054906101000a900460ff16600e811115610b1357610b126156b0565b5b148015610b205750600984145b5b80610baa575060016005811115610b3b57610b3a6156b0565b5b600060019054906101000a900460ff166005811115610b5d57610b5c6156b0565b5b148015610ba957506005600e811115610b7957610b786156b0565b5b600060039054906101000a900460ff16600e811115610b9b57610b9a6156b0565b5b148015610ba85750600684145b5b5b80610c33575060016005811115610bc457610bc36156b0565b5b600060019054906101000a900460ff166005811115610be657610be56156b0565b5b148015610c325750600a600e811115610c0257610c016156b0565b5b600060039054906101000a900460ff16600e811115610c2457610c236156b0565b5b148015610c315750600b84145b5b5b80610cbc575060016005811115610c4d57610c4c6156b0565b5b600060019054906101000a900460ff166005811115610c6f57610c6e6156b0565b5b148015610cbb5750600b600e811115610c8b57610c8a6156b0565b5b600060039054906101000a900460ff16600e811115610cad57610cac6156b0565b5b148015610cba5750600c84145b5b5b80610d45575060016005811115610cd657610cd56156b0565b5b600060019054906101000a900460ff166005811115610cf857610cf76156b0565b5b148015610d4457506004600e811115610d1457610d136156b0565b5b600060039054906101000a900460ff16600e811115610d3657610d356156b0565b5b148015610d435750600584145b5b5b80610dce575060016005811115610d5f57610d5e6156b0565b5b600060019054906101000a900460ff166005811115610d8157610d806156b0565b5b148015610dcd57506003600e811115610d9d57610d9c6156b0565b5b600060039054906101000a900460ff16600e811115610dbf57610dbe6156b0565b5b148015610dcc5750600484145b5b5b15610df257600460056000828254610de6919061596c565b92505081905550611207565b60016005811115610e0657610e056156b0565b5b600060019054906101000a900460ff166005811115610e2857610e276156b0565b5b148015610e7457506003600e811115610e4457610e436156b0565b5b600060039054906101000a900460ff16600e811115610e6657610e656156b0565b5b148015610e735750600484145b5b80610efd575060016005811115610e8e57610e8d6156b0565b5b600060019054906101000a900460ff166005811115610eb057610eaf6156b0565b5b148015610efc57506006600e811115610ecc57610ecb6156b0565b5b600060039054906101000a900460ff16600e811115610eee57610eed6156b0565b5b148015610efb5750600784145b5b5b80610f86575060016005811115610f1757610f166156b0565b5b600060019054906101000a900460ff166005811115610f3957610f386156b0565b5b148015610f8557506007600e811115610f5557610f546156b0565b5b600060039054906101000a900460ff16600e811115610f7757610f766156b0565b5b148015610f845750600884145b5b5b8061100f575060016005811115610fa057610f9f6156b0565b5b600060019054906101000a900460ff166005811115610fc257610fc16156b0565b5b14801561100e57506001600e811115610fde57610fdd6156b0565b5b600060039054906101000a900460ff16600e81111561100057610fff6156b0565b5b14801561100d5750600284145b5b5b1561103357600660056000828254611027919061596c565b92505081905550611206565b60016005811115611047576110466156b0565b5b600060019054906101000a900460ff166005811115611069576110686156b0565b5b1480156110b557506002600e811115611085576110846156b0565b5b600060039054906101000a900460ff16600e8111156110a7576110a66156b0565b5b1480156110b45750600384145b5b8061113e5750600160058111156110cf576110ce6156b0565b5b600060019054906101000a900460ff1660058111156110f1576110f06156b0565b5b14801561113d5750600d600e81111561110d5761110c6156b0565b5b600060039054906101000a900460ff16600e81111561112f5761112e6156b0565b5b14801561113c5750600e84145b5b5b1561116257600060056000828254611156919061596c565b92505081905550611205565b60016005811115611176576111756156b0565b5b600060019054906101000a900460ff166005811115611198576111976156b0565b5b1480156111e457506006600e8111156111b4576111b36156b0565b5b600060039054906101000a900460ff16600e8111156111d6576111d56156b0565b5b1480156111e35750600784145b5b15611204576001600560008282546111fc919061596c565b925050819055505b5b5b5b611aaf565b600260035403611aae576002600581111561122a576112296156b0565b5b600060019054906101000a900460ff16600581111561124c5761124b6156b0565b5b03611aad5760026005811115611265576112646156b0565b5b600060019054906101000a900460ff166005811115611287576112866156b0565b5b1480156112d357506004600e8111156112a3576112a26156b0565b5b600060039054906101000a900460ff16600e8111156112c5576112c46156b0565b5b1480156112d25750600584145b5b8061135b5750600260058111156112ed576112ec6156b0565b5b600060019054906101000a900460ff16600581111561130f5761130e6156b0565b5b14801561135a5750600e8081111561132a576113296156b0565b5b600060039054906101000a900460ff16600e81111561134c5761134b6156b0565b5b1480156113595750600f84145b5b5b806113e4575060026005811115611375576113746156b0565b5b600060019054906101000a900460ff166005811115611397576113966156b0565b5b1480156113e357506003600e8111156113b3576113b26156b0565b5b600060039054906101000a900460ff16600e8111156113d5576113d46156b0565b5b1480156113e25750600484145b5b5b8061146d5750600260058111156113fe576113fd6156b0565b5b600060019054906101000a900460ff1660058111156114205761141f6156b0565b5b14801561146c5750600b600e81111561143c5761143b6156b0565b5b600060039054906101000a900460ff16600e81111561145e5761145d6156b0565b5b14801561146b5750600c84145b5b5b1561149157600460056000828254611485919061596c565b92505081905550611aac565b600260058111156114a5576114a46156b0565b5b600060019054906101000a900460ff1660058111156114c7576114c66156b0565b5b14801561151357506000600e8111156114e3576114e26156b0565b5b600060039054906101000a900460ff16600e811115611505576115046156b0565b5b1480156115125750600184145b5b8061159c57506002600581111561152d5761152c6156b0565b5b600060019054906101000a900460ff16600581111561154f5761154e6156b0565b5b14801561159b57506001600e81111561156b5761156a6156b0565b5b600060039054906101000a900460ff16600e81111561158d5761158c6156b0565b5b14801561159a5750600284145b5b5b806116255750600260058111156115b6576115b56156b0565b5b600060019054906101000a900460ff1660058111156115d8576115d76156b0565b5b14801561162457506002600e8111156115f4576115f36156b0565b5b600060039054906101000a900460ff16600e811115611616576116156156b0565b5b1480156116235750600384145b5b5b806116ae57506002600581111561163f5761163e6156b0565b5b600060019054906101000a900460ff166005811115611661576116606156b0565b5b1480156116ad57506005600e81111561167d5761167c6156b0565b5b600060039054906101000a900460ff16600e81111561169f5761169e6156b0565b5b1480156116ac5750600684145b5b5b806117375750600260058111156116c8576116c76156b0565b5b600060019054906101000a900460ff1660058111156116ea576116e96156b0565b5b14801561173657506006600e811115611706576117056156b0565b5b600060039054906101000a900460ff16600e811115611728576117276156b0565b5b1480156117355750600784145b5b5b806117c0575060026005811115611751576117506156b0565b5b600060019054906101000a900460ff166005811115611773576117726156b0565b5b1480156117bf57506007600e81111561178f5761178e6156b0565b5b600060039054906101000a900460ff16600e8111156117b1576117b06156b0565b5b1480156117be5750600884145b5b5b806118495750600260058111156117da576117d96156b0565b5b600060019054906101000a900460ff1660058111156117fc576117fb6156b0565b5b14801561184857506008600e811115611818576118176156b0565b5b600060039054906101000a900460ff16600e81111561183a576118396156b0565b5b1480156118475750600984145b5b5b806118d2575060026005811115611863576118626156b0565b5b600060019054906101000a900460ff166005811115611885576118846156b0565b5b1480156118d157506009600e8111156118a1576118a06156b0565b5b600060039054906101000a900460ff16600e8111156118c3576118c26156b0565b5b1480156118d05750600a84145b5b5b8061195b5750600260058111156118ec576118eb6156b0565b5b600060019054906101000a900460ff16600581111561190e5761190d6156b0565b5b14801561195a5750600a600e81111561192a576119296156b0565b5b600060039054906101000a900460ff16600e81111561194c5761194b6156b0565b5b1480156119595750600b84145b5b5b806119e4575060026005811115611975576119746156b0565b5b600060019054906101000a900460ff166005811115611997576119966156b0565b5b1480156119e35750600d600e8111156119b3576119b26156b0565b5b600060039054906101000a900460ff16600e8111156119d5576119d46156b0565b5b1480156119e25750600e84145b5b5b15611a08576000600560008282546119fc919061596c565b92505081905550611aab565b60026005811115611a1c57611a1b6156b0565b5b600060019054906101000a900460ff166005811115611a3e57611a3d6156b0565b5b148015611a8a5750600c600e811115611a5a57611a596156b0565b5b600060039054906101000a900460ff16600e811115611a7c57611a7b6156b0565b5b148015611a895750600d84145b5b15611aaa57600160056000828254611aa2919061596c565b925050819055505b5b5b5b5b5b615662565b60038054036122d05760036005811115611ad157611ad06156b0565b5b600060019054906101000a900460ff166005811115611af357611af26156b0565b5b036122cb5760036005811115611b0c57611b0b6156b0565b5b600060019054906101000a900460ff166005811115611b2e57611b2d6156b0565b5b148015611b7a5750600c600e811115611b4a57611b496156b0565b5b600060039054906101000a900460ff16600e811115611b6c57611b6b6156b0565b5b148015611b795750600d84145b5b15611b9e57600160056000828254611b92919061596c565b925050819055506122ca565b60036005811115611bb257611bb16156b0565b5b600060019054906101000a900460ff166005811115611bd457611bd36156b0565b5b148015611c2057506000600e811115611bf057611bef6156b0565b5b600060039054906101000a900460ff16600e811115611c1257611c116156b0565b5b148015611c1f5750600184145b5b80611ca9575060036005811115611c3a57611c396156b0565b5b600060019054906101000a900460ff166005811115611c5c57611c5b6156b0565b5b148015611ca857506001600e811115611c7857611c776156b0565b5b600060039054906101000a900460ff16600e811115611c9a57611c996156b0565b5b148015611ca75750600284145b5b5b80611d32575060036005811115611cc357611cc26156b0565b5b600060019054906101000a900460ff166005811115611ce557611ce46156b0565b5b148015611d3157506003600e811115611d0157611d006156b0565b5b600060039054906101000a900460ff16600e811115611d2357611d226156b0565b5b148015611d305750600484145b5b5b80611dbb575060036005811115611d4c57611d4b6156b0565b5b600060019054906101000a900460ff166005811115611d6e57611d6d6156b0565b5b148015611dba57506004600e811115611d8a57611d896156b0565b5b600060039054906101000a900460ff16600e811115611dac57611dab6156b0565b5b148015611db95750600584145b5b5b80611e44575060036005811115611dd557611dd46156b0565b5b600060019054906101000a900460ff166005811115611df757611df66156b0565b5b148015611e435750600b600e811115611e1357611e126156b0565b5b600060039054906101000a900460ff16600e811115611e3557611e346156b0565b5b148015611e425750600c84145b5b5b15611e6857600260056000828254611e5c919061596c565b925050819055506122c9565b60036005811115611e7c57611e7b6156b0565b5b600060019054906101000a900460ff166005811115611e9e57611e9d6156b0565b5b148015611eea57506005600e811115611eba57611eb96156b0565b5b600060039054906101000a900460ff16600e811115611edc57611edb6156b0565b5b148015611ee95750600684145b5b80611f73575060036005811115611f0457611f036156b0565b5b600060019054906101000a900460ff166005811115611f2657611f256156b0565b5b148015611f7257506006600e811115611f4257611f416156b0565b5b600060039054906101000a900460ff16600e811115611f6457611f636156b0565b5b148015611f715750600784145b5b5b80611ffc575060036005811115611f8d57611f8c6156b0565b5b600060019054906101000a900460ff166005811115611faf57611fae6156b0565b5b148015611ffb57506007600e811115611fcb57611fca6156b0565b5b600060039054906101000a900460ff16600e811115611fed57611fec6156b0565b5b148015611ffa5750600884145b5b5b80612085575060036005811115612016576120156156b0565b5b600060019054906101000a900460ff166005811115612038576120376156b0565b5b14801561208457506008600e811115612054576120536156b0565b5b600060039054906101000a900460ff16600e811115612076576120756156b0565b5b1480156120835750600984145b5b5b8061210e57506003600581111561209f5761209e6156b0565b5b600060019054906101000a900460ff1660058111156120c1576120c06156b0565b5b14801561210d57506009600e8111156120dd576120dc6156b0565b5b600060039054906101000a900460ff16600e8111156120ff576120fe6156b0565b5b14801561210c5750600a84145b5b5b80612197575060036005811115612128576121276156b0565b5b600060019054906101000a900460ff16600581111561214a576121496156b0565b5b1480156121965750600a600e811115612166576121656156b0565b5b600060039054906101000a900460ff16600e811115612188576121876156b0565b5b1480156121955750600b84145b5b5b806122205750600360058111156121b1576121b06156b0565b5b600060019054906101000a900460ff1660058111156121d3576121d26156b0565b5b14801561221f5750600d600e8111156121ef576121ee6156b0565b5b600060039054906101000a900460ff16600e811115612211576122106156b0565b5b14801561221e5750600e84145b5b5b806122a857506003600581111561223a576122396156b0565b5b600060019054906101000a900460ff16600581111561225c5761225b6156b0565b5b1480156122a75750600e80811115612277576122766156b0565b5b600060039054906101000a900460ff16600e811115612299576122986156b0565b5b1480156122a65750600f84145b5b5b156122c8576000600560008282546122c0919061596c565b925050819055505b5b5b5b615661565b600460035403612b7657600460058111156122ee576122ed6156b0565b5b600060019054906101000a900460ff1660058111156123105761230f6156b0565b5b03612b715760046005811115612329576123286156b0565b5b600060019054906101000a900460ff16600581111561234b5761234a6156b0565b5b14801561239757506004600e811115612367576123666156b0565b5b600060039054906101000a900460ff16600e811115612389576123886156b0565b5b1480156123965750600584145b5b806124205750600460058111156123b1576123b06156b0565b5b600060019054906101000a900460ff1660058111156123d3576123d26156b0565b5b14801561241f57506003600e8111156123ef576123ee6156b0565b5b600060039054906101000a900460ff16600e811115612411576124106156b0565b5b14801561241e5750600484145b5b5b806124a957506004600581111561243a576124396156b0565b5b600060019054906101000a900460ff16600581111561245c5761245b6156b0565b5b1480156124a857506000600e811115612478576124776156b0565b5b600060039054906101000a900460ff16600e81111561249a576124996156b0565b5b1480156124a75750600184145b5b5b806125325750600460058111156124c3576124c26156b0565b5b600060019054906101000a900460ff1660058111156124e5576124e46156b0565b5b14801561253157506001600e811115612501576125006156b0565b5b600060039054906101000a900460ff16600e811115612523576125226156b0565b5b1480156125305750600284145b5b5b156125565760066005600082825461254a919061596c565b92505081905550612b70565b6004600581111561256a576125696156b0565b5b600060019054906101000a900460ff16600581111561258c5761258b6156b0565b5b1480156125d857506002600e8111156125a8576125a76156b0565b5b600060039054906101000a900460ff16600e8111156125ca576125c96156b0565b5b1480156125d75750600384145b5b806126615750600460058111156125f2576125f16156b0565b5b600060019054906101000a900460ff166005811115612614576126136156b0565b5b14801561266057506005600e8111156126305761262f6156b0565b5b600060039054906101000a900460ff16600e811115612652576126516156b0565b5b14801561265f5750600684145b5b5b806126ea57506004600581111561267b5761267a6156b0565b5b600060019054906101000a900460ff16600581111561269d5761269c6156b0565b5b1480156126e957506006600e8111156126b9576126b86156b0565b5b600060039054906101000a900460ff16600e8111156126db576126da6156b0565b5b1480156126e85750600784145b5b5b80612773575060046005811115612704576127036156b0565b5b600060019054906101000a900460ff166005811115612726576127256156b0565b5b14801561277257506007600e811115612742576127416156b0565b5b600060039054906101000a900460ff16600e811115612764576127636156b0565b5b1480156127715750600884145b5b5b806127fc57506004600581111561278d5761278c6156b0565b5b600060019054906101000a900460ff1660058111156127af576127ae6156b0565b5b1480156127fb57506008600e8111156127cb576127ca6156b0565b5b600060039054906101000a900460ff16600e8111156127ed576127ec6156b0565b5b1480156127fa5750600984145b5b5b80612885575060046005811115612816576128156156b0565b5b600060019054906101000a900460ff166005811115612838576128376156b0565b5b14801561288457506009600e811115612854576128536156b0565b5b600060039054906101000a900460ff16600e811115612876576128756156b0565b5b1480156128835750600a84145b5b5b8061290e57506004600581111561289f5761289e6156b0565b5b600060019054906101000a900460ff1660058111156128c1576128c06156b0565b5b14801561290d5750600a600e8111156128dd576128dc6156b0565b5b600060039054906101000a900460ff16600e8111156128ff576128fe6156b0565b5b14801561290c5750600b84145b5b5b80612997575060046005811115612928576129276156b0565b5b600060019054906101000a900460ff16600581111561294a576129496156b0565b5b1480156129965750600b600e811115612966576129656156b0565b5b600060039054906101000a900460ff16600e811115612988576129876156b0565b5b1480156129955750600c84145b5b5b80612a205750600460058111156129b1576129b06156b0565b5b600060019054906101000a900460ff1660058111156129d3576129d26156b0565b5b148015612a1f5750600d600e8111156129ef576129ee6156b0565b5b600060039054906101000a900460ff16600e811115612a1157612a106156b0565b5b148015612a1e5750600e84145b5b5b80612aa8575060046005811115612a3a57612a396156b0565b5b600060019054906101000a900460ff166005811115612a5c57612a5b6156b0565b5b148015612aa75750600e80811115612a7757612a766156b0565b5b600060039054906101000a900460ff16600e811115612a9957612a986156b0565b5b148015612aa65750600f84145b5b5b15612acc57600060056000828254612ac0919061596c565b92505081905550612b6f565b60046005811115612ae057612adf6156b0565b5b600060019054906101000a900460ff166005811115612b0257612b016156b0565b5b148015612b4e5750600c600e811115612b1e57612b1d6156b0565b5b600060039054906101000a900460ff16600e811115612b4057612b3f6156b0565b5b148015612b4d5750600d84145b5b15612b6e57600160056000828254612b66919061596c565b925050819055505b5b5b5b615660565b60056003540361340c57600580811115612b9357612b926156b0565b5b600060019054906101000a900460ff166005811115612bb557612bb46156b0565b5b0361340757600580811115612bcd57612bcc6156b0565b5b600060019054906101000a900460ff166005811115612bef57612bee6156b0565b5b148015612c3b57506003600e811115612c0b57612c0a6156b0565b5b600060039054906101000a900460ff16600e811115612c2d57612c2c6156b0565b5b148015612c3a5750600484145b5b80612cc35750600580811115612c5457612c536156b0565b5b600060019054906101000a900460ff166005811115612c7657612c756156b0565b5b148015612cc257506001600e811115612c9257612c916156b0565b5b600060039054906101000a900460ff16600e811115612cb457612cb36156b0565b5b148015612cc15750600284145b5b5b80612d4b5750600580811115612cdc57612cdb6156b0565b5b600060019054906101000a900460ff166005811115612cfe57612cfd6156b0565b5b148015612d4a57506003600e811115612d1a57612d196156b0565b5b600060039054906101000a900460ff16600e811115612d3c57612d3b6156b0565b5b148015612d495750600484145b5b5b80612dd35750600580811115612d6457612d636156b0565b5b600060019054906101000a900460ff166005811115612d8657612d856156b0565b5b148015612dd257506004600e811115612da257612da16156b0565b5b600060039054906101000a900460ff16600e811115612dc457612dc36156b0565b5b148015612dd15750600584145b5b5b80612e5b5750600580811115612dec57612deb6156b0565b5b600060019054906101000a900460ff166005811115612e0e57612e0d6156b0565b5b148015612e5a57506005600e811115612e2a57612e296156b0565b5b600060039054906101000a900460ff16600e811115612e4c57612e4b6156b0565b5b148015612e595750600684145b5b5b80612ee35750600580811115612e7457612e736156b0565b5b600060019054906101000a900460ff166005811115612e9657612e956156b0565b5b148015612ee257506006600e811115612eb257612eb16156b0565b5b600060039054906101000a900460ff16600e811115612ed457612ed36156b0565b5b148015612ee15750600784145b5b5b15612f0757600660056000828254612efb919061596c565b92505081905550613406565b600580811115612f1a57612f196156b0565b5b600060019054906101000a900460ff166005811115612f3c57612f3b6156b0565b5b148015612f8857506007600e811115612f5857612f576156b0565b5b600060039054906101000a900460ff16600e811115612f7a57612f796156b0565b5b148015612f875750600884145b5b806130105750600580811115612fa157612fa06156b0565b5b600060019054906101000a900460ff166005811115612fc357612fc26156b0565b5b14801561300f57506008600e811115612fdf57612fde6156b0565b5b600060039054906101000a900460ff16600e811115613001576130006156b0565b5b14801561300e5750600984145b5b5b806130985750600580811115613029576130286156b0565b5b600060019054906101000a900460ff16600581111561304b5761304a6156b0565b5b14801561309757506009600e811115613067576130666156b0565b5b600060039054906101000a900460ff16600e811115613089576130886156b0565b5b1480156130965750600a84145b5b5b8061312057506005808111156130b1576130b06156b0565b5b600060019054906101000a900460ff1660058111156130d3576130d26156b0565b5b14801561311f5750600a600e8111156130ef576130ee6156b0565b5b600060039054906101000a900460ff16600e811115613111576131106156b0565b5b14801561311e5750600b84145b5b5b1561314457600460056000828254613138919061596c565b92505081905550613405565b600580811115613157576131566156b0565b5b600060019054906101000a900460ff166005811115613179576131786156b0565b5b1480156131c557506000600e811115613195576131946156b0565b5b600060039054906101000a900460ff16600e8111156131b7576131b66156b0565b5b1480156131c45750600184145b5b8061324d57506005808111156131de576131dd6156b0565b5b600060019054906101000a900460ff166005811115613200576131ff6156b0565b5b14801561324c57506002600e81111561321c5761321b6156b0565b5b600060039054906101000a900460ff16600e81111561323e5761323d6156b0565b5b14801561324b5750600384145b5b5b806132d55750600580811115613266576132656156b0565b5b600060019054906101000a900460ff166005811115613288576132876156b0565b5b1480156132d45750600b600e8111156132a4576132a36156b0565b5b600060039054906101000a900460ff16600e8111156132c6576132c56156b0565b5b1480156132d35750600c84145b5b5b8061335d57506005808111156132ee576132ed6156b0565b5b600060019054906101000a900460ff1660058111156133105761330f6156b0565b5b14801561335c5750600d600e81111561332c5761332b6156b0565b5b600060039054906101000a900460ff16600e81111561334e5761334d6156b0565b5b14801561335b5750600e84145b5b5b806133e45750600580811115613376576133756156b0565b5b600060019054906101000a900460ff166005811115613398576133976156b0565b5b1480156133e35750600e808111156133b3576133b26156b0565b5b600060039054906101000a900460ff16600e8111156133d5576133d46156b0565b5b1480156133e25750600f84145b5b5b15613404576000600560008282546133fc919061596c565b925050819055505b5b5b5b61565f565b600160025403613cdb57600060045403613cd65760006003811115613434576134336156b0565b5b600060029054906101000a900460ff166003811115613456576134556156b0565b5b03613cd5576000600381111561346f5761346e6156b0565b5b600060029054906101000a900460ff166003811115613491576134906156b0565b5b1480156134dd57506002600e8111156134ad576134ac6156b0565b5b600060039054906101000a900460ff16600e8111156134cf576134ce6156b0565b5b1480156134dc5750600384145b5b806135665750600060038111156134f7576134f66156b0565b5b600060029054906101000a900460ff166003811115613519576135186156b0565b5b14801561356557506006600e811115613535576135346156b0565b5b600060039054906101000a900460ff16600e811115613557576135566156b0565b5b1480156135645750600784145b5b5b806135ef5750600060038111156135805761357f6156b0565b5b600060029054906101000a900460ff1660038111156135a2576135a16156b0565b5b1480156135ee5750600d600e8111156135be576135bd6156b0565b5b600060039054906101000a900460ff16600e8111156135e0576135df6156b0565b5b1480156135ed5750600e84145b5b5b1561361357600660056000828254613607919061596c565b92505081905550613cd4565b60006003811115613627576136266156b0565b5b600060029054906101000a900460ff166003811115613649576136486156b0565b5b14801561369557506000600e811115613665576136646156b0565b5b600060039054906101000a900460ff16600e811115613687576136866156b0565b5b1480156136945750600184145b5b8061371e5750600060038111156136af576136ae6156b0565b5b600060029054906101000a900460ff1660038111156136d1576136d06156b0565b5b14801561371d57506001600e8111156136ed576136ec6156b0565b5b600060039054906101000a900460ff16600e81111561370f5761370e6156b0565b5b14801561371c5750600284145b5b5b806137a7575060006003811115613738576137376156b0565b5b600060029054906101000a900460ff16600381111561375a576137596156b0565b5b1480156137a657506003600e811115613776576137756156b0565b5b600060039054906101000a900460ff16600e811115613798576137976156b0565b5b1480156137a55750600484145b5b5b806138305750600060038111156137c1576137c06156b0565b5b600060029054906101000a900460ff1660038111156137e3576137e26156b0565b5b14801561382f57506004600e8111156137ff576137fe6156b0565b5b600060039054906101000a900460ff16600e811115613821576138206156b0565b5b14801561382e5750600584145b5b5b806138b957506000600381111561384a576138496156b0565b5b600060029054906101000a900460ff16600381111561386c5761386b6156b0565b5b1480156138b85750600b600e811115613888576138876156b0565b5b600060039054906101000a900460ff16600e8111156138aa576138a96156b0565b5b1480156138b75750600c84145b5b5b806139415750600060038111156138d3576138d26156b0565b5b600060029054906101000a900460ff1660038111156138f5576138f46156b0565b5b1480156139405750600e808111156139105761390f6156b0565b5b600060039054906101000a900460ff16600e811115613932576139316156b0565b5b14801561393f5750600f84145b5b5b1561396557600060056000828254613959919061596c565b92505081905550613cd3565b60006003811115613979576139786156b0565b5b600060029054906101000a900460ff16600381111561399b5761399a6156b0565b5b1480156139e757506005600e8111156139b7576139b66156b0565b5b600060039054906101000a900460ff16600e8111156139d9576139d86156b0565b5b1480156139e65750600684145b5b80613a70575060006003811115613a0157613a006156b0565b5b600060029054906101000a900460ff166003811115613a2357613a226156b0565b5b148015613a6f57506007600e811115613a3f57613a3e6156b0565b5b600060039054906101000a900460ff16600e811115613a6157613a606156b0565b5b148015613a6e5750600884145b5b5b80613af9575060006003811115613a8a57613a896156b0565b5b600060029054906101000a900460ff166003811115613aac57613aab6156b0565b5b148015613af857506008600e811115613ac857613ac76156b0565b5b600060039054906101000a900460ff16600e811115613aea57613ae96156b0565b5b148015613af75750600984145b5b5b80613b82575060006003811115613b1357613b126156b0565b5b600060029054906101000a900460ff166003811115613b3557613b346156b0565b5b148015613b8157506009600e811115613b5157613b506156b0565b5b600060039054906101000a900460ff16600e811115613b7357613b726156b0565b5b148015613b805750600a84145b5b5b80613c0b575060006003811115613b9c57613b9b6156b0565b5b600060029054906101000a900460ff166003811115613bbe57613bbd6156b0565b5b148015613c0a5750600a600e811115613bda57613bd96156b0565b5b600060039054906101000a900460ff16600e811115613bfc57613bfb6156b0565b5b148015613c095750600b84145b5b5b15613c2f57600460056000828254613c23919061596c565b92505081905550613cd2565b60006003811115613c4357613c426156b0565b5b600060029054906101000a900460ff166003811115613c6557613c646156b0565b5b148015613cb15750600c600e811115613c8157613c806156b0565b5b600060039054906101000a900460ff16600e811115613ca357613ca26156b0565b5b148015613cb05750600d84145b5b15613cd157600160056000828254613cc9919061596c565b925050819055505b5b5b5b5b5b61565e565b60016004540361459f5760016003811115613cf957613cf86156b0565b5b600060029054906101000a900460ff166003811115613d1b57613d1a6156b0565b5b0361459a5760016003811115613d3457613d336156b0565b5b600060029054906101000a900460ff166003811115613d5657613d556156b0565b5b148015613da257506002600e811115613d7257613d716156b0565b5b600060039054906101000a900460ff16600e811115613d9457613d936156b0565b5b148015613da15750600384145b5b80613e2b575060016003811115613dbc57613dbb6156b0565b5b600060029054906101000a900460ff166003811115613dde57613ddd6156b0565b5b148015613e2a5750600d600e811115613dfa57613df96156b0565b5b600060039054906101000a900460ff16600e811115613e1c57613e1b6156b0565b5b148015613e295750600e84145b5b5b15613e4f57600660056000828254613e43919061596c565b92505081905550614599565b60016003811115613e6357613e626156b0565b5b600060029054906101000a900460ff166003811115613e8557613e846156b0565b5b148015613ed157506001600e811115613ea157613ea06156b0565b5b600060039054906101000a900460ff16600e811115613ec357613ec26156b0565b5b148015613ed05750600284145b5b80613f5a575060016003811115613eeb57613eea6156b0565b5b600060029054906101000a900460ff166003811115613f0d57613f0c6156b0565b5b148015613f5957506006600e811115613f2957613f286156b0565b5b600060039054906101000a900460ff16600e811115613f4b57613f4a6156b0565b5b148015613f585750600784145b5b5b80613fe3575060016003811115613f7457613f736156b0565b5b600060029054906101000a900460ff166003811115613f9657613f956156b0565b5b148015613fe257506007600e811115613fb257613fb16156b0565b5b600060039054906101000a900460ff16600e811115613fd457613fd36156b0565b5b148015613fe15750600884145b5b5b1561400757600460056000828254613ffb919061596c565b92505081905550614598565b6001600381111561401b5761401a6156b0565b5b600060029054906101000a900460ff16600381111561403d5761403c6156b0565b5b1480156140895750600c600e811115614059576140586156b0565b5b600060039054906101000a900460ff16600e81111561407b5761407a6156b0565b5b1480156140885750600d84145b5b156140ad576001600560008282546140a1919061596c565b92505081905550614597565b600160038111156140c1576140c06156b0565b5b600060029054906101000a900460ff1660038111156140e3576140e26156b0565b5b14801561412f57506000600e8111156140ff576140fe6156b0565b5b600060039054906101000a900460ff16600e811115614121576141206156b0565b5b14801561412e5750600184145b5b806141b8575060016003811115614149576141486156b0565b5b600060029054906101000a900460ff16600381111561416b5761416a6156b0565b5b1480156141b757506003600e811115614187576141866156b0565b5b600060039054906101000a900460ff16600e8111156141a9576141a86156b0565b5b1480156141b65750600484145b5b5b806142415750600160038111156141d2576141d16156b0565b5b600060029054906101000a900460ff1660038111156141f4576141f36156b0565b5b14801561424057506004600e8111156142105761420f6156b0565b5b600060039054906101000a900460ff16600e811115614232576142316156b0565b5b14801561423f5750600584145b5b5b806142ca57506001600381111561425b5761425a6156b0565b5b600060029054906101000a900460ff16600381111561427d5761427c6156b0565b5b1480156142c957506005600e811115614299576142986156b0565b5b600060039054906101000a900460ff16600e8111156142bb576142ba6156b0565b5b1480156142c85750600684145b5b5b806143535750600160038111156142e4576142e36156b0565b5b600060029054906101000a900460ff166003811115614306576143056156b0565b5b14801561435257506008600e811115614322576143216156b0565b5b600060039054906101000a900460ff16600e811115614344576143436156b0565b5b1480156143515750600984145b5b5b806143dc57506001600381111561436d5761436c6156b0565b5b600060029054906101000a900460ff16600381111561438f5761438e6156b0565b5b1480156143db57506009600e8111156143ab576143aa6156b0565b5b600060039054906101000a900460ff16600e8111156143cd576143cc6156b0565b5b1480156143da5750600a84145b5b5b806144655750600160038111156143f6576143f56156b0565b5b600060029054906101000a900460ff166003811115614418576144176156b0565b5b1480156144645750600a600e811115614434576144336156b0565b5b600060039054906101000a900460ff16600e811115614456576144556156b0565b5b1480156144635750600b84145b5b5b806144ee57506001600381111561447f5761447e6156b0565b5b600060029054906101000a900460ff1660038111156144a1576144a06156b0565b5b1480156144ed5750600b600e8111156144bd576144bc6156b0565b5b600060039054906101000a900460ff16600e8111156144df576144de6156b0565b5b1480156144ec5750600c84145b5b5b80614576575060016003811115614508576145076156b0565b5b600060029054906101000a900460ff16600381111561452a576145296156b0565b5b1480156145755750600e80811115614545576145446156b0565b5b600060039054906101000a900460ff16600e811115614567576145666156b0565b5b1480156145745750600f84145b5b5b156145965760006005600082825461458e919061596c565b925050819055505b5b5b5b5b61565d565b600260045403614e6357600260038111156145bd576145bc6156b0565b5b600060029054906101000a900460ff1660038111156145df576145de6156b0565b5b03614e5e57600260038111156145f8576145f76156b0565b5b600060029054906101000a900460ff16600381111561461a576146196156b0565b5b14801561466657506002600e811115614636576146356156b0565b5b600060039054906101000a900460ff16600e811115614658576146576156b0565b5b1480156146655750600384145b5b806146ef5750600260038111156146805761467f6156b0565b5b600060029054906101000a900460ff1660038111156146a2576146a16156b0565b5b1480156146ee57506006600e8111156146be576146bd6156b0565b5b600060039054906101000a900460ff16600e8111156146e0576146df6156b0565b5b1480156146ed5750600784145b5b5b80614778575060026003811115614709576147086156b0565b5b600060029054906101000a900460ff16600381111561472b5761472a6156b0565b5b1480156147775750600d600e811115614747576147466156b0565b5b600060039054906101000a900460ff16600e811115614769576147686156b0565b5b1480156147765750600e84145b5b5b1561479c57600660056000828254614790919061596c565b92505081905550614e5d565b600260038111156147b0576147af6156b0565b5b600060029054906101000a900460ff1660038111156147d2576147d16156b0565b5b14801561481e57506000600e8111156147ee576147ed6156b0565b5b600060039054906101000a900460ff16600e8111156148105761480f6156b0565b5b14801561481d5750600184145b5b806148a7575060026003811115614838576148376156b0565b5b600060029054906101000a900460ff16600381111561485a576148596156b0565b5b1480156148a657506005600e811115614876576148756156b0565b5b600060039054906101000a900460ff16600e811115614898576148976156b0565b5b1480156148a55750600684145b5b5b806149305750600260038111156148c1576148c06156b0565b5b600060029054906101000a900460ff1660038111156148e3576148e26156b0565b5b14801561492f57506007600e8111156148ff576148fe6156b0565b5b600060039054906101000a900460ff16600e811115614921576149206156b0565b5b14801561492e5750600884145b5b5b1561495457600460056000828254614948919061596c565b92505081905550614e5c565b60026003811115614968576149676156b0565b5b600060029054906101000a900460ff16600381111561498a576149896156b0565b5b1480156149d657506001600e8111156149a6576149a56156b0565b5b600060039054906101000a900460ff16600e8111156149c8576149c76156b0565b5b1480156149d55750600284145b5b80614a5f5750600260038111156149f0576149ef6156b0565b5b600060029054906101000a900460ff166003811115614a1257614a116156b0565b5b148015614a5e57506008600e811115614a2e57614a2d6156b0565b5b600060039054906101000a900460ff16600e811115614a5057614a4f6156b0565b5b148015614a5d5750600984145b5b5b80614ae8575060026003811115614a7957614a786156b0565b5b600060029054906101000a900460ff166003811115614a9b57614a9a6156b0565b5b148015614ae757506009600e811115614ab757614ab66156b0565b5b600060039054906101000a900460ff16600e811115614ad957614ad86156b0565b5b148015614ae65750600a84145b5b5b80614b71575060026003811115614b0257614b016156b0565b5b600060029054906101000a900460ff166003811115614b2457614b236156b0565b5b148015614b705750600a600e811115614b4057614b3f6156b0565b5b600060039054906101000a900460ff16600e811115614b6257614b616156b0565b5b148015614b6f5750600b84145b5b5b80614bfa575060026003811115614b8b57614b8a6156b0565b5b600060029054906101000a900460ff166003811115614bad57614bac6156b0565b5b148015614bf95750600c600e811115614bc957614bc86156b0565b5b600060039054906101000a900460ff16600e811115614beb57614bea6156b0565b5b148015614bf85750600d84145b5b5b15614c1e57600160056000828254614c12919061596c565b92505081905550614e5b565b60026003811115614c3257614c316156b0565b5b600060029054906101000a900460ff166003811115614c5457614c536156b0565b5b148015614ca057506003600e811115614c7057614c6f6156b0565b5b600060039054906101000a900460ff16600e811115614c9257614c916156b0565b5b148015614c9f5750600484145b5b80614d29575060026003811115614cba57614cb96156b0565b5b600060029054906101000a900460ff166003811115614cdc57614cdb6156b0565b5b148015614d2857506004600e811115614cf857614cf76156b0565b5b600060039054906101000a900460ff16600e811115614d1a57614d196156b0565b5b148015614d275750600584145b5b5b80614db2575060026003811115614d4357614d426156b0565b5b600060029054906101000a900460ff166003811115614d6557614d646156b0565b5b148015614db15750600b600e811115614d8157614d806156b0565b5b600060039054906101000a900460ff16600e811115614da357614da26156b0565b5b148015614db05750600c84145b5b5b80614e3a575060026003811115614dcc57614dcb6156b0565b5b600060029054906101000a900460ff166003811115614dee57614ded6156b0565b5b148015614e395750600e80811115614e0957614e086156b0565b5b600060039054906101000a900460ff16600e811115614e2b57614e2a6156b0565b5b148015614e385750600f84145b5b5b15614e5a57600060056000828254614e52919061596c565b925050819055505b5b5b5b5b61565c565b60036004540361565b57600380811115614e8057614e7f6156b0565b5b600060029054906101000a900460ff166003811115614ea257614ea16156b0565b5b0361565a57600380811115614eba57614eb96156b0565b5b600060029054906101000a900460ff166003811115614edc57614edb6156b0565b5b148015614f2857506002600e811115614ef857614ef76156b0565b5b600060039054906101000a900460ff16600e811115614f1a57614f196156b0565b5b148015614f275750600384145b5b80614fb05750600380811115614f4157614f406156b0565b5b600060029054906101000a900460ff166003811115614f6357614f626156b0565b5b148015614faf57506006600e811115614f7f57614f7e6156b0565b5b600060039054906101000a900460ff16600e811115614fa157614fa06156b0565b5b148015614fae5750600784145b5b5b806150385750600380811115614fc957614fc86156b0565b5b600060029054906101000a900460ff166003811115614feb57614fea6156b0565b5b1480156150375750600d600e811115615007576150066156b0565b5b600060039054906101000a900460ff16600e811115615029576150286156b0565b5b1480156150365750600e84145b5b5b1561505c57600660056000828254615050919061596c565b92505081905550615659565b60038081111561506f5761506e6156b0565b5b600060029054906101000a900460ff166003811115615091576150906156b0565b5b1480156150dd57506007600e8111156150ad576150ac6156b0565b5b600060039054906101000a900460ff16600e8111156150cf576150ce6156b0565b5b1480156150dc5750600884145b5b15615101576004600560008282546150f5919061596c565b92505081905550615658565b600380811115615114576151136156b0565b5b600060029054906101000a900460ff166003811115615136576151356156b0565b5b14801561518257506000600e811115615152576151516156b0565b5b600060039054906101000a900460ff16600e811115615174576151736156b0565b5b1480156151815750600184145b5b8061520a575060038081111561519b5761519a6156b0565b5b600060029054906101000a900460ff1660038111156151bd576151bc6156b0565b5b14801561520957506001600e8111156151d9576151d86156b0565b5b600060039054906101000a900460ff16600e8111156151fb576151fa6156b0565b5b1480156152085750600284145b5b5b806152925750600380811115615223576152226156b0565b5b600060029054906101000a900460ff166003811115615245576152446156b0565b5b14801561529157506005600e811115615261576152606156b0565b5b600060039054906101000a900460ff16600e811115615283576152826156b0565b5b1480156152905750600684145b5b5b8061531a57506003808111156152ab576152aa6156b0565b5b600060029054906101000a900460ff1660038111156152cd576152cc6156b0565b5b14801561531957506008600e8111156152e9576152e86156b0565b5b600060039054906101000a900460ff16600e81111561530b5761530a6156b0565b5b1480156153185750600984145b5b5b806153a25750600380811115615333576153326156b0565b5b600060029054906101000a900460ff166003811115615355576153546156b0565b5b1480156153a157506009600e811115615371576153706156b0565b5b600060039054906101000a900460ff16600e811115615393576153926156b0565b5b1480156153a05750600a84145b5b5b8061542a57506003808111156153bb576153ba6156b0565b5b600060029054906101000a900460ff1660038111156153dd576153dc6156b0565b5b1480156154295750600a600e8111156153f9576153f86156b0565b5b600060039054906101000a900460ff16600e81111561541b5761541a6156b0565b5b1480156154285750600b84145b5b5b1561544e57600160056000828254615442919061596c565b92505081905550615657565b600380811115615461576154606156b0565b5b600060029054906101000a900460ff166003811115615483576154826156b0565b5b1480156154c357506003600e81111561549f5761549e6156b0565b5b600060039054906101000a900460ff16600e8111156154c1576154c06156b0565b5b145b8061553f57506003808111156154dc576154db6156b0565b5b600060029054906101000a900460ff1660038111156154fe576154fd6156b0565b5b14801561553e57506004600e81111561551a576155196156b0565b5b600060039054906101000a900460ff16600e81111561553c5761553b6156b0565b5b145b5b806155bb5750600380811115615558576155576156b0565b5b600060029054906101000a900460ff16600381111561557a576155796156b0565b5b1480156155ba5750600b600e811115615596576155956156b0565b5b600060039054906101000a900460ff16600e8111156155b8576155b76156b0565b5b145b5b8061563657506003808111156155d4576155d36156b0565b5b600060029054906101000a900460ff1660038111156155f6576155f56156b0565b5b1480156156355750600e80811115615611576156106156b0565b5b600060039054906101000a900460ff16600e811115615633576156326156b0565b5b145b5b156156565760006005600082825461564e919061596c565b925050819055505b5b5b5b5b5b5b5b5b5b5b5b5b5b5b808061566f906159a0565b915050610205565b508080615683906159a0565b9150506101f6565b50919050565b60055481565b600060029054906101000a900460ff1681565b60045481565b7f4e487b7100000000000000000000000000000000000000000000000000000000600052602160045260246000fd5b600281106156f0576156ef6156b0565b5b50565b6000819050615701826156df565b919050565b6000615711826156f3565b9050919050565b61572181615706565b82525050565b600060208201905061573c6000830184615718565b92915050565b6000819050919050565b61575581615742565b82525050565b6000602082019050615770600083018461574c565b92915050565b60068110615787576157866156b0565b5b50565b600081905061579882615776565b919050565b60006157a88261578a565b9050919050565b6157b88161579d565b82525050565b60006020820190506157d360008301846157af565b92915050565b600080fd5b6157e781615742565b81146157f257600080fd5b50565b600081359050615804816157de565b92915050565b6000602082840312156158205761581f6157d9565b5b600061582e848285016157f5565b91505092915050565b60048110615848576158476156b0565b5b50565b600081905061585982615837565b919050565b60006158698261584b565b9050919050565b6158798161585e565b82525050565b60006020820190506158946000830184615870565b92915050565b600082825260208201905092915050565b7f506c656173652073656c656374206d6f7265207468656e203135206e756d626560008201527f7200000000000000000000000000000000000000000000000000000000000000602082015250565b600061590760218361589a565b9150615912826158ab565b604082019050919050565b60006020820190508181036000830152615936816158fa565b9050919050565b7f4e487b7100000000000000000000000000000000000000000000000000000000600052601160045260246000fd5b600061597782615742565b915061598283615742565b925082820190508082111561599a5761599961593d565b5b92915050565b60006159ab82615742565b91507fffffffffffffffffffffffffffffffffffffffffffffffffffffffffffffffff82036159dd576159dc61593d565b5b60018201905091905056fea26469706673582212204fae51c82a6be81d2ef958c7753edc9615e2c1395956f235611d81a73f25b40264736f6c63430008110033",
  "immutableReferences": {},
  "source": "// pragma solidity >=0.8.4;\r\n\r\n// contract learning {\r\n//     // Default methods\r\n//     uint256 coins = 0;\r\n\r\n//     function add() public {\r\n//         coins += 1;\r\n//     }\r\n\r\n//     function subtract() public {\r\n//         coins -= 1;\r\n//     }\r\n\r\n//     function set(uint256 _coins) public {\r\n//         coins = _coins;\r\n//     }\r\n\r\n// }\r\n\r\n// SPDX-License-Identifier: MIT\r\npragma solidity ^0.8.9;\r\n\r\ncontract learning{\r\n\r\n    // enum ChooseField {Tie,BAT,BALL} \r\n    // ChooseField public chooseField;\r\n\r\n    enum TypeOfBaller {Fast,Spin} \r\n    TypeOfBaller public typeOfBaller;\r\n\r\n    enum FasterBallType {yorker,full,good,short,bouncer,fullTose} \r\n    FasterBallType public fasterBallType;\r\n\r\n    enum SppinerBallType {topSpin, Doosra, armBall, offBreak}\r\n    SppinerBallType public sppinerBallType;\r\n\r\n    // yorker => Dab,Scoop,Drive,Reverse Sweep,\r\n    enum TypeOfShot {\r\n                    scoop,\r\n                    legGlance,\r\n                    sweep,\r\n                    hook,\r\n                    pull,\r\n                    onDrive,\r\n                    loftedDrive,\r\n                    straightDrive,\r\n                    offDrive,\r\n                    coverDrive,\r\n                    squareDrive,\r\n                    squareCut,\r\n                    duck,\r\n                    reveseSweep,\r\n                    upeerCut\r\n                    }\r\n\r\n    TypeOfShot typeOfShot;\r\n\r\n    //This is for generating the random number\r\n    uint public randNumber = uint(keccak256(abi.encodePacked(block.timestamp,msg.sender))) % 2;\r\n   \r\n\r\n    uint256 public  typeComputerBalling = uint(keccak256(abi.encodePacked(block.timestamp,msg.sender))) % 2;\r\n    \r\n    uint256 public fastComputer = uint(keccak256(abi.encodePacked(block.timestamp,msg.sender))) % 6;\r\n\r\n    uint256 public spinComputer = uint(keccak256(abi.encodePacked(block.timestamp,msg.sender))) % 4;\r\n    \r\n\r\n    //This is for number of Ball\r\n    modifier numOfBalll()\r\n    {\r\n        for(uint256 noBall = 1;noBall <=2; noBall++){\r\n            _;\r\n        }\r\n    }\r\n    modifier numOfOver(){\r\n        for(uint256 noOver = 1;noOver <= 5;noOver++){\r\n            _;\r\n        }\r\n    }\r\n\r\n    uint public run = 0; \r\n\r\n    function computerSideGame(uint256 val) public numOfBalll() numOfOver() returns(uint256) {\r\n\r\n        require(val >= 15,\"Please select more then 15 number\");\r\n\r\n        if(typeComputerBalling == 0) {\r\n            if(fastComputer == 0){\r\n                if(((fasterBallType == FasterBallType.yorker) && ( typeOfShot== TypeOfShot.legGlance && val == 2))\r\n                 || ((fasterBallType == FasterBallType.yorker) && (typeOfShot == TypeOfShot.scoop && val == 1))){\r\n                 run += 4;\r\n            } \r\n             else if((fasterBallType == FasterBallType.yorker) && (typeOfShot == TypeOfShot.straightDrive && val == 8) || \r\n             (fasterBallType == FasterBallType.yorker) && (typeOfShot == TypeOfShot.loftedDrive && val == 7)) {\r\n                 run += 6;\r\n            }\r\n            \r\n            else if((fasterBallType == FasterBallType.yorker) && (typeOfShot == TypeOfShot.pull && val == 5) ||\r\n                    (fasterBallType == FasterBallType.yorker) && (typeOfShot == TypeOfShot.hook && val == 4) || \r\n                    (fasterBallType == FasterBallType.yorker) && (typeOfShot == TypeOfShot.upeerCut && val == 15) ||\r\n                    (fasterBallType == FasterBallType.yorker) && (typeOfShot == TypeOfShot.squareCut && val == 12) ||\r\n                    (fasterBallType == FasterBallType.yorker) && (typeOfShot == TypeOfShot.squareDrive && val == 11) ||\r\n                    (fasterBallType == FasterBallType.yorker) && (typeOfShot == TypeOfShot.coverDrive && val == 10) ||\r\n                    (fasterBallType == FasterBallType.yorker) && (typeOfShot == TypeOfShot.offDrive && val == 9)){\r\n                        run += 0;\r\n                } \r\n            \r\n            else if((fasterBallType == FasterBallType.yorker) && (typeOfShot == TypeOfShot.sweep && val == 3) || \r\n                    (fasterBallType == FasterBallType.yorker) && (typeOfShot == TypeOfShot.reveseSweep && val == 14) ||\r\n                    (fasterBallType == FasterBallType.yorker) && (typeOfShot == TypeOfShot.duck && val == 13 )) {\r\n                        run += 1;\r\n                    }\r\n            }\r\n\r\n        else if(fastComputer == 1){\r\n            if((fasterBallType == FasterBallType.full)){\r\n                if((fasterBallType == FasterBallType.full) && (typeOfShot == TypeOfShot.offDrive && val == 9) || \r\n                   (fasterBallType == FasterBallType.full) && (typeOfShot == TypeOfShot.onDrive  && val == 6) || \r\n                   (fasterBallType == FasterBallType.full) && (typeOfShot == TypeOfShot.squareDrive && val == 11) ||\r\n                   (fasterBallType == FasterBallType.full) && (typeOfShot == TypeOfShot.squareCut && val == 12) || \r\n                   (fasterBallType == FasterBallType.full) && (typeOfShot == TypeOfShot.pull && val == 5) ||\r\n                   (fasterBallType == FasterBallType.full) && (typeOfShot == TypeOfShot.hook && val == 4)){\r\n                       run += 4;\r\n                   } \r\n                   else if((fasterBallType == FasterBallType.full) && (typeOfShot == TypeOfShot.hook && val == 4) ||\r\n                           (fasterBallType == FasterBallType.full) && (typeOfShot == TypeOfShot.loftedDrive && val == 7) || \r\n                           (fasterBallType == FasterBallType.full) && (typeOfShot == TypeOfShot.straightDrive && val == 8) || \r\n                           (fasterBallType == FasterBallType.full) && (typeOfShot == TypeOfShot.legGlance && val == 2)) {\r\n                               run += 6;\r\n                    }\r\n                    else if((fasterBallType == FasterBallType.full) && (typeOfShot == TypeOfShot.sweep && val == 3) ||\r\n                             (fasterBallType == FasterBallType.full) && (typeOfShot == TypeOfShot.reveseSweep && val == 14) ){\r\n                                 run += 0;\r\n                    } else if((fasterBallType == FasterBallType.full) && (typeOfShot == TypeOfShot.loftedDrive && val == 7)) {\r\n                        run += 1;\r\n                    }\r\n            }\r\n        else if(fastComputer == 2){\r\n            if((fasterBallType == FasterBallType.good)){\r\n\r\n                if((fasterBallType == FasterBallType.good) && (typeOfShot == TypeOfShot.pull && val == 5) || \r\n                  (fasterBallType == FasterBallType.good) && (typeOfShot == TypeOfShot.upeerCut && val == 15) ||\r\n                  (fasterBallType == FasterBallType.good) && (typeOfShot == TypeOfShot.hook && val == 4) || \r\n                  (fasterBallType == FasterBallType.good) && (typeOfShot == TypeOfShot.squareCut && val == 12)){\r\n                    run += 4;\r\n                } \r\n\r\n                else if((fasterBallType == FasterBallType.good) && (typeOfShot == TypeOfShot.scoop && val == 1) ||\r\n                        (fasterBallType == FasterBallType.good) && (typeOfShot == TypeOfShot.legGlance && val == 2) ||\r\n                        (fasterBallType == FasterBallType.good) && (typeOfShot == TypeOfShot.sweep && val == 3) ||\r\n                        (fasterBallType == FasterBallType.good) && (typeOfShot == TypeOfShot.onDrive && val == 6) ||\r\n                        (fasterBallType == FasterBallType.good) && (typeOfShot == TypeOfShot.loftedDrive && val == 7) ||\r\n                        (fasterBallType == FasterBallType.good) && (typeOfShot == TypeOfShot.straightDrive && val == 8) ||\r\n                        (fasterBallType == FasterBallType.good) && (typeOfShot == TypeOfShot.offDrive && val == 9) || \r\n                        (fasterBallType == FasterBallType.good) && (typeOfShot == TypeOfShot.coverDrive && val == 10) ||\r\n                        (fasterBallType == FasterBallType.good) && (typeOfShot == TypeOfShot.squareDrive && val == 11) ||\r\n                        (fasterBallType == FasterBallType.good) && (typeOfShot == TypeOfShot.reveseSweep && val == 14))\r\n                        {\r\n                            run += 0;\r\n                        }\r\n                else if((fasterBallType == FasterBallType.good) && (typeOfShot == TypeOfShot.duck && val == 13)) {\r\n                    run += 1;\r\n                }\r\n        }\r\n        }\r\n        }\r\n\r\n        else if(fastComputer == 3){\r\n            if((fasterBallType == FasterBallType.short)) {\r\n                if((fasterBallType == FasterBallType.short) && (typeOfShot == TypeOfShot.duck && val == 13)) {\r\n                    run += 1;\r\n                }\r\n                else if((fasterBallType == FasterBallType.short) && (typeOfShot == TypeOfShot.scoop && val == 1) ||\r\n                   (fasterBallType == FasterBallType.short) && (typeOfShot == TypeOfShot.legGlance && val == 2) ||\r\n                   (fasterBallType == FasterBallType.short) && (typeOfShot == TypeOfShot.hook && val == 4) || \r\n                   (fasterBallType == FasterBallType.short) && (typeOfShot == TypeOfShot.pull && val == 5) ||\r\n                   (fasterBallType == FasterBallType.short) && (typeOfShot == TypeOfShot.squareCut && val == 12) \r\n                   ) {\r\n                       run += 2;\r\n                } \r\n                else if((fasterBallType == FasterBallType.short) && (typeOfShot == TypeOfShot.onDrive && val == 6) ||\r\n                        (fasterBallType == FasterBallType.short) && (typeOfShot == TypeOfShot.loftedDrive && val == 7) || \r\n                        (fasterBallType == FasterBallType.short) && (typeOfShot == TypeOfShot.straightDrive && val == 8) ||\r\n                        (fasterBallType == FasterBallType.short) && (typeOfShot == TypeOfShot.offDrive && val == 9) || \r\n                        (fasterBallType == FasterBallType.short) && (typeOfShot == TypeOfShot.coverDrive && val == 10) || \r\n                        (fasterBallType == FasterBallType.short) && (typeOfShot == TypeOfShot.squareDrive && val == 11) || \r\n                        (fasterBallType == FasterBallType.short) && (typeOfShot == TypeOfShot.reveseSweep && val == 14) || \r\n                        (fasterBallType == FasterBallType.short) && (typeOfShot == TypeOfShot.upeerCut && val == 15)) {\r\n                            run += 0;\r\n                        }\r\n            }\r\n        }\r\n        else if(fastComputer == 4){\r\n            if((fasterBallType == FasterBallType.bouncer)){\r\n                if((fasterBallType == FasterBallType.bouncer) && (typeOfShot == TypeOfShot.pull && val == 5) ||\r\n                   (fasterBallType == FasterBallType.bouncer) && (typeOfShot == TypeOfShot.hook && val == 4) ||\r\n                   (fasterBallType == FasterBallType.bouncer) && (typeOfShot == TypeOfShot.scoop && val == 1) ||\r\n                   (fasterBallType == FasterBallType.bouncer) && (typeOfShot == TypeOfShot.legGlance && val == 2)\r\n                   ){\r\n                       run+=6;\r\n                   }\r\n                else if((fasterBallType == FasterBallType.bouncer) && (typeOfShot == TypeOfShot.sweep && val == 3) ||\r\n                           (fasterBallType == FasterBallType.bouncer) && (typeOfShot == TypeOfShot.onDrive && val == 6) ||\r\n                           (fasterBallType == FasterBallType.bouncer) && (typeOfShot == TypeOfShot.loftedDrive && val == 7) ||\r\n                           (fasterBallType == FasterBallType.bouncer) && (typeOfShot == TypeOfShot.straightDrive && val == 8) ||\r\n                           (fasterBallType == FasterBallType.bouncer) && (typeOfShot == TypeOfShot.offDrive && val == 9) ||\r\n                           (fasterBallType == FasterBallType.bouncer) && (typeOfShot == TypeOfShot.coverDrive && val == 10) ||\r\n                           (fasterBallType == FasterBallType.bouncer) && (typeOfShot == TypeOfShot.squareDrive && val == 11) ||\r\n                           (fasterBallType == FasterBallType.bouncer) && (typeOfShot == TypeOfShot.squareCut && val == 12) ||\r\n                           (fasterBallType == FasterBallType.bouncer) && (typeOfShot == TypeOfShot.reveseSweep && val == 14) || \r\n                           (fasterBallType == FasterBallType.bouncer) && (typeOfShot == TypeOfShot.upeerCut && val == 15)\r\n                           ){\r\n                               run += 0;\r\n                           }\r\n\r\n                else if((fasterBallType == FasterBallType.bouncer) && (typeOfShot == TypeOfShot.duck && val == 13)){\r\n                       run += 1;\r\n                   }\r\n            }\r\n        }\r\n        else if(fastComputer == 5){\r\n            if((fasterBallType == FasterBallType.fullTose)){\r\n                if((fasterBallType == FasterBallType.fullTose) && (typeOfShot == TypeOfShot.hook && val == 4) ||\r\n                  (fasterBallType == FasterBallType.fullTose) && (typeOfShot == TypeOfShot.legGlance && val == 2)||\r\n                  (fasterBallType == FasterBallType.fullTose) && (typeOfShot == TypeOfShot.hook && val == 4) ||\r\n                  (fasterBallType == FasterBallType.fullTose) && (typeOfShot == TypeOfShot.pull && val == 5) ||\r\n                  (fasterBallType == FasterBallType.fullTose) && (typeOfShot == TypeOfShot.onDrive && val == 6) || \r\n                  (fasterBallType == FasterBallType.fullTose) && (typeOfShot == TypeOfShot.loftedDrive && val == 7)\r\n                  )\r\n                {\r\n                    run += 6;\r\n                }\r\n                \r\n                else if((fasterBallType == FasterBallType.fullTose) && (typeOfShot == TypeOfShot.straightDrive && val == 8) || \r\n                        (fasterBallType == FasterBallType.fullTose) && (typeOfShot == TypeOfShot.offDrive && val == 9) || \r\n                        (fasterBallType == FasterBallType.fullTose) && (typeOfShot == TypeOfShot.coverDrive && val == 10) ||\r\n                        (fasterBallType == FasterBallType.fullTose) && (typeOfShot == TypeOfShot.squareDrive && val == 11) \r\n                        )\r\n                {\r\n                    run += 4;\r\n                }\r\n                \r\n                else if((fasterBallType == FasterBallType.fullTose) && (typeOfShot == TypeOfShot.scoop && val == 1) ||\r\n                       (fasterBallType == FasterBallType.fullTose) && (typeOfShot == TypeOfShot.sweep && val == 3) || \r\n                        (fasterBallType == FasterBallType.fullTose) && (typeOfShot == TypeOfShot.squareCut && val == 12) ||\r\n                        (fasterBallType == FasterBallType.fullTose) && (typeOfShot == TypeOfShot.reveseSweep && val == 14) ||\r\n                        (fasterBallType == FasterBallType.fullTose) && (typeOfShot == TypeOfShot.upeerCut && val == 15)\r\n                       )\r\n                {\r\n                    run += 0;\r\n                }\r\n            }\r\n        }\r\n\r\n\r\n        //This is for spin type of an bolwing  \r\n        else if(typeComputerBalling == 1){\r\n            if(spinComputer == 0){\r\n            if(sppinerBallType == SppinerBallType.topSpin) {\r\n             if((sppinerBallType == SppinerBallType.topSpin) && (typeOfShot == TypeOfShot.sweep && val == 3) ||\r\n                (sppinerBallType == SppinerBallType.topSpin) && (typeOfShot == TypeOfShot.loftedDrive && val == 7) ||\r\n                (sppinerBallType == SppinerBallType.topSpin) && (typeOfShot == TypeOfShot.reveseSweep && val == 14))\r\n              { \r\n                  run += 6;\r\n              }\r\n             else if((sppinerBallType == SppinerBallType.topSpin) && (typeOfShot == TypeOfShot.scoop && val == 1) || \r\n                    (sppinerBallType == SppinerBallType.topSpin) && (typeOfShot == TypeOfShot.legGlance && val == 2) ||\r\n                    (sppinerBallType == SppinerBallType.topSpin) && (typeOfShot == TypeOfShot.hook && val == 4) || \r\n                    (sppinerBallType == SppinerBallType.topSpin) && (typeOfShot == TypeOfShot.pull && val == 5) || \r\n                    (sppinerBallType == SppinerBallType.topSpin) && (typeOfShot == TypeOfShot.squareCut && val == 12) || \r\n                    (sppinerBallType == SppinerBallType.topSpin) && (typeOfShot == TypeOfShot.upeerCut && val == 15)\r\n                    )\r\n              {\r\n                         run += 0;\r\n              }\r\n             else if((sppinerBallType == SppinerBallType.topSpin) && (typeOfShot == TypeOfShot.onDrive && val == 6) || \r\n                    (sppinerBallType == SppinerBallType.topSpin) && (typeOfShot == TypeOfShot.straightDrive && val == 8) ||\r\n                    (sppinerBallType == SppinerBallType.topSpin) && (typeOfShot == TypeOfShot.offDrive  && val == 9) ||\r\n                    (sppinerBallType == SppinerBallType.topSpin) && (typeOfShot == TypeOfShot.coverDrive && val == 10) ||\r\n                    (sppinerBallType == SppinerBallType.topSpin) && (typeOfShot == TypeOfShot.squareDrive && val == 11)\r\n                    )\r\n              {\r\n                  run += 4;\r\n              }\r\n              else if((sppinerBallType == SppinerBallType.topSpin) && (typeOfShot == TypeOfShot.duck && val == 13)){\r\n                  run += 1;\r\n              }\r\n            }\r\n            }\r\n        }\r\n\r\n            else if(spinComputer == 1){\r\n                if((sppinerBallType == SppinerBallType.Doosra)){\r\n                if((sppinerBallType == SppinerBallType.Doosra) && (typeOfShot == TypeOfShot.sweep && val == 3) ||\r\n                     (sppinerBallType == SppinerBallType.Doosra) && (typeOfShot == TypeOfShot.reveseSweep && val == 14))\r\n                  {\r\n                      run += 6;\r\n                  }\r\n                  else if((sppinerBallType == SppinerBallType.Doosra) && (typeOfShot == TypeOfShot.legGlance && val == 2) ||\r\n                         (sppinerBallType == SppinerBallType.Doosra) && (typeOfShot == TypeOfShot.loftedDrive && val == 7) ||\r\n                         (sppinerBallType == SppinerBallType.Doosra) && (typeOfShot == TypeOfShot.straightDrive && val == 8))\r\n                  {\r\n                      run += 4;\r\n                      }\r\n                  else if((sppinerBallType == SppinerBallType.Doosra) && (typeOfShot == TypeOfShot.duck && val == 13))\r\n                  {\r\n                      run += 1;\r\n                      }\r\n                  else if((sppinerBallType == SppinerBallType.Doosra) && (typeOfShot == TypeOfShot.scoop && val == 1) ||\r\n                        (sppinerBallType == SppinerBallType.Doosra) && (typeOfShot == TypeOfShot.hook && val == 4) ||\r\n                        (sppinerBallType == SppinerBallType.Doosra) && (typeOfShot == TypeOfShot.pull && val == 5) ||\r\n                        (sppinerBallType == SppinerBallType.Doosra) && (typeOfShot == TypeOfShot.onDrive && val == 6) ||\r\n                        (sppinerBallType == SppinerBallType.Doosra) && (typeOfShot == TypeOfShot.offDrive && val == 9) ||\r\n                        (sppinerBallType == SppinerBallType.Doosra) && (typeOfShot == TypeOfShot.coverDrive && val == 10) ||\r\n                        (sppinerBallType == SppinerBallType.Doosra) && (typeOfShot == TypeOfShot.squareDrive && val == 11) || \r\n                        (sppinerBallType == SppinerBallType.Doosra) && (typeOfShot == TypeOfShot.squareCut && val == 12) ||\r\n                        (sppinerBallType == SppinerBallType.Doosra) && (typeOfShot == TypeOfShot.upeerCut && val == 15))\r\n                  {\r\n                      run += 0;\r\n                  }\r\n            }\r\n            }\r\n\r\n            else if(spinComputer == 2){\r\n                if((sppinerBallType == SppinerBallType.armBall)){\r\n                    if((sppinerBallType == SppinerBallType.armBall) && (typeOfShot == TypeOfShot.sweep && val == 3) ||\r\n                        (sppinerBallType == SppinerBallType.armBall) && (typeOfShot == TypeOfShot.loftedDrive && val == 7) ||\r\n                        (sppinerBallType == SppinerBallType.armBall) && (typeOfShot == TypeOfShot.reveseSweep && val == 14)){\r\n                          run += 6;\r\n                      } \r\n                      else if((sppinerBallType == SppinerBallType.armBall) && (typeOfShot == TypeOfShot.scoop && val == 1) || \r\n                             (sppinerBallType == SppinerBallType.armBall) && (typeOfShot == TypeOfShot.onDrive && val == 6) || \r\n                             (sppinerBallType == SppinerBallType.armBall) && (typeOfShot == TypeOfShot.straightDrive && val == 8)) {\r\n                          run += 4;\r\n                      }\r\n                      else if((sppinerBallType == SppinerBallType.armBall) && (typeOfShot == TypeOfShot.legGlance  && val == 2) ||\r\n                              (sppinerBallType == SppinerBallType.armBall) && (typeOfShot == TypeOfShot.offDrive && val == 9) ||\r\n                              (sppinerBallType == SppinerBallType.armBall) && (typeOfShot == TypeOfShot.coverDrive && val == 10) ||\r\n                              (sppinerBallType == SppinerBallType.armBall) && (typeOfShot == TypeOfShot.squareDrive && val == 11) ||\r\n                              (sppinerBallType == SppinerBallType.armBall) && (typeOfShot == TypeOfShot.duck && val == 13)) {\r\n                          run += 1;\r\n                      }\r\n                      else if((sppinerBallType == SppinerBallType.armBall) && (typeOfShot == TypeOfShot.hook && val == 4) ||\r\n                              (sppinerBallType == SppinerBallType.armBall) && (typeOfShot == TypeOfShot.pull && val == 5) || \r\n                              (sppinerBallType == SppinerBallType.armBall) && (typeOfShot == TypeOfShot.squareCut && val == 12) ||\r\n                              (sppinerBallType == SppinerBallType.armBall) && (typeOfShot == TypeOfShot.upeerCut && val == 15)\r\n                              ) {\r\n                          run += 0;\r\n                      }\r\n                }\r\n            }\r\n            else if(spinComputer == 3){\r\n                if((sppinerBallType == SppinerBallType.offBreak)){\r\n                    if((sppinerBallType == SppinerBallType.offBreak) && (typeOfShot == TypeOfShot.sweep && val == 3) ||\r\n                      (sppinerBallType == SppinerBallType.offBreak) && (typeOfShot == TypeOfShot.loftedDrive && val == 7) ||\r\n                      (sppinerBallType == SppinerBallType.offBreak) && (typeOfShot == TypeOfShot.reveseSweep && val == 14)){\r\n                          run += 6;\r\n                      } \r\n                      else if((sppinerBallType == SppinerBallType.offBreak) && (typeOfShot == TypeOfShot.straightDrive && val == 8) \r\n                             ){\r\n                          run += 4;\r\n                      }\r\n                      else if((sppinerBallType == SppinerBallType.offBreak) && (typeOfShot == TypeOfShot.scoop  && val == 1) ||\r\n                              (sppinerBallType == SppinerBallType.offBreak) && (typeOfShot == TypeOfShot.legGlance  && val == 2) ||\r\n                              (sppinerBallType == SppinerBallType.offBreak) && (typeOfShot == TypeOfShot.onDrive  && val == 6) ||\r\n                              (sppinerBallType == SppinerBallType.offBreak) && (typeOfShot == TypeOfShot.offDrive && val == 9) ||\r\n                              (sppinerBallType == SppinerBallType.offBreak) && (typeOfShot == TypeOfShot.coverDrive && val == 10) ||\r\n                              (sppinerBallType == SppinerBallType.offBreak) && (typeOfShot == TypeOfShot.squareDrive && val == 11) ){\r\n                          run += 1;\r\n                      }\r\n                      else if((sppinerBallType == SppinerBallType.offBreak) && (typeOfShot == TypeOfShot.hook) ||\r\n                              (sppinerBallType == SppinerBallType.offBreak) && (typeOfShot == TypeOfShot.pull) ||\r\n                              (sppinerBallType == SppinerBallType.offBreak) && (typeOfShot == TypeOfShot.squareCut) ||\r\n                              (sppinerBallType == SppinerBallType.offBreak) && (typeOfShot == TypeOfShot.upeerCut)){\r\n                          run += 0;\r\n                      }\r\n                }\r\n            }\r\n            }\r\n            run;\r\n        }\r\n\r\n    }",
  "sourcePath": "C:\\Users\\Viper_Pc\\Desktop\\tiddi\\truffleEng\\contracts\\Learning.sol",
  "compiler": {
    "name": "solc",
    "version": "0.8.17+commit.8df45f5f.Emscripten.clang"
  },
  "schemaVersion": "3.4.13",
  "updatedAt": "2023-04-15T22:09:44.294Z",
  "networkType": "ethereum",
  "devdoc": {
    "kind": "dev",
    "methods": {},
    "version": 1
  },
  "userdoc": {
    "kind": "user",
    "methods": {},
    "version": 1
  }
}