{
  "contractName": "learning",
  "abi": [
    {
      "inputs": [],
      "name": "add",
      "outputs": [],
      "stateMutability": "nonpayable",
      "type": "function"
    },
    {
      "inputs": [],
      "name": "subtract",
      "outputs": [],
      "stateMutability": "nonpayable",
      "type": "function"
    },
    {
      "inputs": [
        {
          "internalType": "uint256",
          "name": "_coins",
          "type": "uint256"
        }
      ],
      "name": "set",
      "outputs": [],
      "stateMutability": "nonpayable",
      "type": "function"
    }
  ],
  "bytecode": "0x60806040526000805534801561001457600080fd5b506101eb806100246000396000f3fe608060405234801561001057600080fd5b50600436106100415760003560e01c80634f2be91f1461004657806360fe47b1146100505780636deebae31461006c575b600080fd5b61004e610076565b005b61006a600480360381019061006591906100f1565b610091565b005b61007461009b565b005b6001600080828254610088919061014d565b92505081905550565b8060008190555050565b60016000808282546100ad9190610181565b92505081905550565b600080fd5b6000819050919050565b6100ce816100bb565b81146100d957600080fd5b50565b6000813590506100eb816100c5565b92915050565b600060208284031215610107576101066100b6565b5b6000610115848285016100dc565b91505092915050565b7f4e487b7100000000000000000000000000000000000000000000000000000000600052601160045260246000fd5b6000610158826100bb565b9150610163836100bb565b925082820190508082111561017b5761017a61011e565b5b92915050565b600061018c826100bb565b9150610197836100bb565b92508282039050818111156101af576101ae61011e565b5b9291505056fea2646970667358221220679a65e89e37e736ef48cb2218e5d47e24372989116ec0350eb0c52d1d1a6b0864736f6c63430008110033",
  "immutableReferences": {},
  "source": "// SPDX-License-Identifier: MIT\r\npragma solidity >=0.8.4;\r\n\r\ncontract learning{\r\n    uint256 coins = 0;\r\n\r\n    function add() public{\r\n        coins += 1;\r\n    }\r\n\r\n    function subtract() public{\r\n        coins -= 1;\r\n    }\r\n\r\n    function set(uint256 _coins) public{\r\n        coins = _coins;\r\n    }\r\n\r\n}",
  "sourcePath": "C:\\Users\\Viper_Pc\\Desktop\\tiddi\\truffleEng\\contracts\\Learning.sol",
  "compiler": {
    "name": "solc",
    "version": "0.8.17+commit.8df45f5f.Emscripten.clang"
  },
  "schemaVersion": "3.4.13",
  "updatedAt": "2023-04-14T19:07:41.667Z",
  "networkType": "ethereum",
  "devdoc": {
    "kind": "dev",
    "methods": {},
    "version": 1
  },
  "userdoc": {
    "kind": "user",
    "methods": {},
    "version": 1
  }
}